{
  "contractName": "Election",
  "abi": [
    {
      "constant": true,
      "inputs": [
        {
          "internalType": "uint256",
          "name": "",
          "type": "uint256"
        }
      ],
      "name": "addedVoter",
      "outputs": [
        {
          "internalType": "bool",
          "name": "",
          "type": "bool"
        }
      ],
      "payable": false,
      "stateMutability": "view",
      "type": "function"
    },
    {
      "constant": true,
      "inputs": [
        {
          "internalType": "uint256",
          "name": "",
          "type": "uint256"
        }
      ],
      "name": "updatedVoter",
      "outputs": [
        {
          "internalType": "bool",
          "name": "",
          "type": "bool"
        }
      ],
      "payable": false,
      "stateMutability": "view",
      "type": "function"
    },
    {
      "constant": true,
      "inputs": [
        {
          "internalType": "uint256",
          "name": "",
          "type": "uint256"
        }
      ],
      "name": "voters",
      "outputs": [
        {
          "internalType": "uint256",
          "name": "voterId",
          "type": "uint256"
        },
        {
          "internalType": "string",
          "name": "name",
          "type": "string"
        },
        {
          "internalType": "uint256",
          "name": "age",
          "type": "uint256"
        },
        {
          "internalType": "bool",
          "name": "voted",
          "type": "bool"
        },
        {
          "internalType": "string",
          "name": "dob",
          "type": "string"
        },
        {
          "internalType": "string",
          "name": "location",
          "type": "string"
        },
        {
          "internalType": "string",
          "name": "time",
          "type": "string"
        },
        {
          "internalType": "string",
          "name": "dov",
          "type": "string"
        }
      ],
      "payable": false,
      "stateMutability": "view",
      "type": "function"
    },
    {
      "constant": false,
      "inputs": [
        {
          "internalType": "uint256",
          "name": "_voterId",
          "type": "uint256"
        },
        {
          "internalType": "string",
          "name": "_name",
          "type": "string"
        },
        {
          "internalType": "uint256",
          "name": "_age",
          "type": "uint256"
        },
        {
          "internalType": "string",
          "name": "_dob",
          "type": "string"
        }
      ],
      "name": "addVoter",
      "outputs": [],
      "payable": false,
      "stateMutability": "nonpayable",
      "type": "function"
    },
    {
      "constant": false,
      "inputs": [
        {
          "internalType": "uint256",
          "name": "_voterId",
          "type": "uint256"
        },
        {
          "internalType": "string",
          "name": "_location",
          "type": "string"
        },
        {
          "internalType": "string",
          "name": "_time",
          "type": "string"
        },
        {
          "internalType": "string",
          "name": "_dov",
          "type": "string"
        }
      ],
      "name": "updateVoter",
      "outputs": [],
      "payable": false,
      "stateMutability": "nonpayable",
      "type": "function"
    }
  ],
  "bytecode": "0x608060405234801561001057600080fd5b50610ec1806100206000396000f3fe608060405234801561001057600080fd5b50600436106100575760003560e01c80634d94e7781461005c578063b47bd278146101c2578063b68a078514610208578063da58c7d9146103fb578063fdad21b81461066b575b600080fd5b6101c06004803603608081101561007257600080fd5b81019080803590602001909291908035906020019064010000000081111561009957600080fd5b8201836020820111156100ab57600080fd5b803590602001918460018302840111640100000000831117156100cd57600080fd5b91908080601f016020809104026020016040519081016040528093929190818152602001838380828437600081840152601f19601f820116905080830192505050505050509192919290803590602001909291908035906020019064010000000081111561013a57600080fd5b82018360208201111561014c57600080fd5b8035906020019184600183028401116401000000008311171561016e57600080fd5b91908080601f016020809104026020016040519081016040528093929190818152602001838380828437600081840152601f19601f8201169050808301925050505050505091929192905050506106b1565b005b6101ee600480360360208110156101d857600080fd5b81019080803590602001909291905050506108d1565b604051808215151515815260200191505060405180910390f35b6103f96004803603608081101561021e57600080fd5b81019080803590602001909291908035906020019064010000000081111561024557600080fd5b82018360208201111561025757600080fd5b8035906020019184600183028401116401000000008311171561027957600080fd5b91908080601f016020809104026020016040519081016040528093929190818152602001838380828437600081840152601f19601f820116905080830192505050505050509192919290803590602001906401000000008111156102dc57600080fd5b8201836020820111156102ee57600080fd5b8035906020019184600183028401116401000000008311171561031057600080fd5b91908080601f016020809104026020016040519081016040528093929190818152602001838380828437600081840152601f19601f8201169050808301925050505050505091929192908035906020019064010000000081111561037357600080fd5b82018360208201111561038557600080fd5b803590602001918460018302840111640100000000831117156103a757600080fd5b91908080601f016020809104026020016040519081016040528093929190818152602001838380828437600081840152601f19601f8201169050808301925050505050505091929192905050506108f1565b005b6104276004803603602081101561041157600080fd5b81019080803590602001909291905050506109fa565b6040518089815260200180602001888152602001871515151581526020018060200180602001806020018060200186810386528d818151815260200191508051906020019080838360005b8381101561048d578082015181840152602081019050610472565b50505050905090810190601f1680156104ba5780820380516001836020036101000a031916815260200191505b5086810385528a818151815260200191508051906020019080838360005b838110156104f35780820151818401526020810190506104d8565b50505050905090810190601f1680156105205780820380516001836020036101000a031916815260200191505b50868103845289818151815260200191508051906020019080838360005b8381101561055957808201518184015260208101905061053e565b50505050905090810190601f1680156105865780820380516001836020036101000a031916815260200191505b50868103835288818151815260200191508051906020019080838360005b838110156105bf5780820151818401526020810190506105a4565b50505050905090810190601f1680156105ec5780820380516001836020036101000a031916815260200191505b50868103825287818151815260200191508051906020019080838360005b8381101561062557808201518184015260208101905061060a565b50505050905090810190601f1680156106525780820380516001836020036101000a031916815260200191505b509d505050505050505050505050505060405180910390f35b6106976004803603602081101561068157600080fd5b8101908080359060200190929190505050610d47565b604051808215151515815260200191505060405180910390f35b60128210156106bf57600080fd5b6001600085815260200190815260200160002060009054906101000a900460ff16156106ea57600080fd5b6040518061010001604052808581526020018481526020018381526020016000151581526020018281526020016040518060400160405280600181526020017f2d0000000000000000000000000000000000000000000000000000000000000081525081526020016040518060400160405280600181526020017f2d0000000000000000000000000000000000000000000000000000000000000081525081526020016040518060400160405280600181526020017f2d000000000000000000000000000000000000000000000000000000000000008152508152506000808681526020019081526020016000206000820151816000015560208201518160010190805190602001906107fe929190610d67565b506040820151816002015560608201518160030160006101000a81548160ff0219169083151502179055506080820151816004019080519060200190610845929190610d67565b5060a0820151816005019080519060200190610862929190610d67565b5060c082015181600601908051906020019061087f929190610d67565b5060e082015181600701908051906020019061089c929190610d67565b50905050600180600086815260200190815260200160002060006101000a81548160ff02191690831515021790555050505050565b60016020528060005260406000206000915054906101000a900460ff1681565b6002600085815260200190815260200160002060009054906101000a900460ff161561091c57600080fd5b60016002600086815260200190815260200160002060006101000a81548160ff021916908315150217905550600160008086815260200190815260200160002060030160006101000a81548160ff02191690831515021790555082600080868152602001908152602001600020600501908051906020019061099f929190610de7565b508160008086815260200190815260200160002060060190805190602001906109c9929190610de7565b508060008086815260200190815260200160002060070190805190602001906109f3929190610de7565b5050505050565b6000602052806000526040600020600091509050806000015490806001018054600181600116156101000203166002900480601f016020809104026020016040519081016040528092919081815260200182805460018160011615610100020316600290048015610aac5780601f10610a8157610100808354040283529160200191610aac565b820191906000526020600020905b815481529060010190602001808311610a8f57829003601f168201915b5050505050908060020154908060030160009054906101000a900460ff1690806004018054600181600116156101000203166002900480601f016020809104026020016040519081016040528092919081815260200182805460018160011615610100020316600290048015610b635780601f10610b3857610100808354040283529160200191610b63565b820191906000526020600020905b815481529060010190602001808311610b4657829003601f168201915b505050505090806005018054600181600116156101000203166002900480601f016020809104026020016040519081016040528092919081815260200182805460018160011615610100020316600290048015610c015780601f10610bd657610100808354040283529160200191610c01565b820191906000526020600020905b815481529060010190602001808311610be457829003601f168201915b505050505090806006018054600181600116156101000203166002900480601f016020809104026020016040519081016040528092919081815260200182805460018160011615610100020316600290048015610c9f5780601f10610c7457610100808354040283529160200191610c9f565b820191906000526020600020905b815481529060010190602001808311610c8257829003601f168201915b505050505090806007018054600181600116156101000203166002900480601f016020809104026020016040519081016040528092919081815260200182805460018160011615610100020316600290048015610d3d5780601f10610d1257610100808354040283529160200191610d3d565b820191906000526020600020905b815481529060010190602001808311610d2057829003601f168201915b5050505050905088565b60026020528060005260406000206000915054906101000a900460ff1681565b828054600181600116156101000203166002900490600052602060002090601f016020900481019282601f10610da857805160ff1916838001178555610dd6565b82800160010185558215610dd6579182015b82811115610dd5578251825591602001919060010190610dba565b5b509050610de39190610e67565b5090565b828054600181600116156101000203166002900490600052602060002090601f016020900481019282601f10610e2857805160ff1916838001178555610e56565b82800160010185558215610e56579182015b82811115610e55578251825591602001919060010190610e3a565b5b509050610e639190610e67565b5090565b610e8991905b80821115610e85576000816000905550600101610e6d565b5090565b9056fea265627a7a72315820cf00e5a22d48f4ea4c049c3b80560a1b3c2004c388df37b68e1c79c380a7e97e64736f6c63430005100032",
  "source": "pragma solidity >=0.4.21 <0.7.0;\n\ncontract Election {\n    // Model a Candidate\n\n\n    // Model a Voter\n    struct Voter{\n        uint voterId;\n        string name;\n        uint age;\n        bool voted;\n        string dob;\n        string location;\n        string time;\n        string dov;\n    }\n\n\n    mapping(uint => Voter) public voters;\n    \n    mapping(uint => bool) public addedVoter;\n    mapping(uint => bool) public updatedVoter;\n\n\n    function addVoter(uint _voterId,string memory _name,uint _age,string memory _dob) public {\n        require(_age>=18);\n        require(!addedVoter[_voterId]);\n        voters[_voterId] = Voter(_voterId,_name,_age,false,_dob,'-','-','-');\n        addedVoter[_voterId]=true;\n    }\n\n    function updateVoter(uint _voterId,string memory _location, string memory _time,string memory _dov) public {\n        require(!updatedVoter[_voterId]);\n        updatedVoter[_voterId]=true;\n        voters[_voterId].voted=true;\n        voters[_voterId].location=_location;\n        voters[_voterId].time=_time;\n        voters[_voterId].dov=_dov;\n    }\n    \n}",
  "sourcePath": "C:/Users/yashr/Documents/Important/Projects/Election/contracts/Election.sol",
  "compiler": {
    "name": "solc",
    "version": "0.5.16+commit.9c3226ce.Emscripten.clang"
  },
  "schemaVersion": "3.4.1",
  "updatedAt": "2021-07-24T13:09:58.102Z",
  "networkType": "ethereum",
  "devdoc": {
    "methods": {}
  },
  "userdoc": {
    "methods": {}
  }
}